S01E00004F6E5F44656D616E645F5472616669635F4C696768742E7372656392
S11300000C942A000C94B2020C94DB020C940403AA
S11300100C943C000C943C000C943C000C943C006C
S11300200C943C000C943C000C948F030C943C0006
S11300300C943C000C943C000C943C000C943C004C
S11300400C943C000C943C000C943C000C943C003C
S11300500C943C0011241FBECFE5D8E0DEBFCDBF19
S113006020E0A0E6B0E001C01D92A337B207E1F79B
S11300700E94AD010C94E6030C94000080916E0084
S113008081111BC041E061E00E94410141E064E054
S113009082E00E94410148E853E160E070E080E0C2
S11300A00E94A40140E061E080E00E94410140E040
S11300B064E082E00E94410152C08150823008F025
S11300C04EC041E061E082E00E94410141E064E011
S11300D080E00E94410140916F0050917000052E14
S11300E0000C660B770B80E00E94A40140E061E005
S11300F082E00E94410140E064E080E00E9441010E
S113010042E062E080E00E94710140E062E080E051
S11301100E94410140E062E082E00E94410141E02E
S113012064E082E00E94410141E061E080E00E94DD
S1130130410148E853E160E070E080E00E94A401DE
S113014040E064E082E00E94410140E061E080E040
S11301500E94410142E062E080E00E94710140E0BF
S113016062E080E00E94410140E062E082E00E949F
S1130170410141E064E080E00E94410141E061E02E
S113018082E00E94410148E853E160E070E080E0D1
S11301900E94A40140E064E080E00E94410140E04C
S11301A061E082E00E94410180E00E94A80108957C
S11301B0CF930E942D01811143C04EE350E062E0D1
S11301C00E94230141E061E080E00E94410110921D
S11301D06E0048E853E160E070E080E00E94A40112
S11301E040E061E080E00E94410162E080E00E9422
S11301F04501C1E0C0936E0040E062E080E00E94EF
S1130200410141E064E080E00E94410182E080938A
S11302106E0048E853E160E070E080E00E94A401D1
S113022040E064E080E00E94410162E080E00E94DE
S11302304501C0936E0040E062E080E00E9441010D
S113024080E0CF910895CF93C82F0E9480028C2F15
S11302500E946B0280E0CF91089580E00E945103D8
S113026041E064E083E00E94B70140E067E080E0A1
S11302700E94B70140E067E082E00E94B70180E09D
S113028008950E941D0280E00895CF92DF92EF92BC
S1130290FF92CF93DF93D82FC62FC12CD12C760198
S11302A011C06C2F8D2F0E94530244EF51E060E087
S11302B070E080E00E94620384EFC80E81E0D81EE3
S11302C0E11CF11C88E8C81683E1D806E104F104B6
S11302D040F380E0DF91CF91FF90EF90DF90CF90DB
S11302E00895CF92DF92EF92FF921F93CF93DF9303
S11302F0182FD62FC42FC12CD12C760115C06C2FEA
S1130300812F0E9453026C2F8D2F0E94530244EFC1
S113031051E060E070E080E00E94620384EFC80E68
S113032081E0D81EE11CF11C88E8C81683E1D806D8
S1130330E104F10420F380E0DF91CF911F91FF905D
S1130340EF90DF90CF9008950E94620380E00895BB
S113035080E00E942D0380E008950E94D60381115D
S113036003C00E94D800FDCF80E090E008954130A2
S1130370C1F118F04230C9F00895813051F028F0ED
S1130380823059F0833069F008958AB3682B6ABBD0
S1130390089587B3682B67BB089584B3682B64BB47
S11303A0089581B3682B61BB0895813059F028F01A
S11303B0823069F0833081F008958AB360956823B0
S11303C06ABB089587B36095682367BB089584B3B7
S11303D06095682364BB089581B36095682361BB0D
S11303E00895813079F028F08230A9F08330E1F06B
S11303F008958AB3962F909589238ABB8BB3682B73
S11304006BBB089587B3962F9095892387BB88B3D8
S1130410682B68BB089584B3962F9095892384BB79
S113042085B3682B65BB089581B3962F9095892376
S113043081BB82B3682B62BB08954130C1F4813023
S113044051F028F0823059F0833069F008958BB36D
S1130450682B6BBB089588B3682B68BB089585B37C
S1130460682B65BB089582B3682B62BB0895813005
S113047059F028F0823069F0833081F008958BB30D
S1130480609568236BBB089588B36095682368BB47
S1130490089585B36095682365BB089582B360951C
S11304A0682362BB0895813051F028F0823059F0FE
S11304B0833069F008958BB368276BBB089588B3C4
S11304C0682768BB089585B3682765BB089582B320
S11304D0682762BB08959FB790689FBF813041F041
S11304E018F0823049F008958BB780648BBF08956B
S11304F08BB780688BBF08958BB780628BBF0895DC
S1130500813079F018F08230E1F00895509365005D
S11305104093640085B78C7F85BF85B7682B65BF22
S11305200895509363004093620085B7837F85BF2D
S113053085B770E0660F771F660F771F682B65BF5E
S113054008955093610040936000623019F0633065
S113055029F0089584B78F7B84BF089584B780649D
S113056084BF08951F920F920FB60F9211242F93F8
S11305703F934F935F936F937F938F939F93AF9327
S1130580BF93EF93FF93E0916400F091650030977F
S113059009F00995FF91EF91BF91AF919F918F91D0
S11305A07F916F915F914F913F912F910F900FBE6B
S11305B00F901F9018951F920F920FB60F9211244F
S11305C02F933F934F935F936F937F938F939F9357
S11305D0AF93BF93EF93FF93E0916200F0916300B8
S11305E0309709F00995FF91EF91BF91AF919F91D9
S11305F08F917F916F915F914F913F912F910F90C8
S11306000FBE0F901F9018951F920F920FB60F9266
S113061011242F933F934F935F936F937F938F9303
S11306209F93AF93BF93EF93FF93E0916000F0919A
S11306306100309709F00995FF91EF91BF91AF9157
S11306409F918F917F916F915F914F913F912F91E6
S11306500F900FBE0F901F901895882319F08130CA
S113066059F0089583B7887F83BF12BE93B78091F2
S11306706D00892B83BF08958EB59FB5887F9FBD7C
S11306808EBD1DBC1CBC8EB59FB520916C00822B09
S11306909FBD8EBD0895811103C083B7887F83BF3A
S11306A00895882319F0813061F408C083E08093B1
S11306B06D0088E083BF8DE78CBF089583E080934D
S11306C06C000895CF92DF92EF92FF926A017B0152
S11306D0811120C00E942D0310C008B601FEFDCF79
S11306E040936F0050937000609371007093720098
S11306F088B7826088BF6A017B01B701A6014150B7
S1130700510961097109CD28CE28CF2831F780E03D
S11307100E942D03FF90EF90DF90CF9008951F92D9
S11307200F920FB60F9211242F933F934F935F9321
S11307306F937F938F939F93AF93BF93EF93FF93A5
S1130740E0916600F09167003097F9F080916800BD
S113075090916900A0916A00B0916B000097A10587
S1130760B10561F00197A109B109809368009093E4
S11307706900A0936A00B0936B0007C0099589B71C
S11307808D7F89BF80E00E944B03FF91EF91BF9161
S1130790AF919F918F917F916F915F914F913F9115
S11307A02F910F900FBE0F901F9018954EE350E0BD
S11307B062E080E00E942301811106C00E94D800FB
S11307C0811102C00E942D0180E00895F894FFCFAA
S9030000FC
